:020000040000FA
:06000000B5EF7FF01200D5
:0600080004EF20F01200DD
:060018000CEF20F01200C5
:10E680000400E7FF0000E300000009000000E2FFD3
:10E690000000EC00000005000000D8FF0000D900D9
:10E6A00000000A000000D6FF0000F5000000020094
:02E6B000000068
:0EE6B200DEEC7AF0030EE126640EF36E020E2B
:10E6C000F3CFDBFFDE6ADD6ADECF10F0DDCF11F0C5
:10E6D000FD0EDBCF12F0FE0E33EC7BF00BE2020EF0
:10E6E000DBCFE6FFDFEC7FF0E552DF2A010EECE343
:10E6F000DB2AEAD7030EE15C02E2E16AE552E16E51
:10E70000E3EF7AF0DEEC7AF0E652FD0EDBCF10F0AC
:10E71000DB06FE0EDBCF11F001E2DB06105011101C
:10E7200007E00A0EE66EE66AC4DFE552E552EDD771
:10E73000E552E3EF7AF0D9CFE6FFE1CFD9FF0A0E39
:10E74000E126DF6A490EE66E010EE66EA5EC79F071
:10E75000E552E552E76E010EE7CFDBFF020EDB6A02
:10E76000030EDB6AF29ED19096949692040EE66EAA
:10E77000E66A350EE66E010EE66ECB0EE66E000E14
:10E78000E66E5BEC79F0106E060EE15E1050030E43
:10E79000E66EE66A410EE66E010EE66EF20EE66E7B
:10E7A000000EE66E5BEC79F0106E060EE15E105026
:10E7B00092EC7BF042EC7DF0010EE66EE66A4C0EC8
:10E7C000E66E010EE66ED950050FE66E000EDA20F9
:10E7D000E66E5BEC79F0106E060EE15E1050010EF5
:10E7E000E66E050EDBCFE6FF80EC7DF0E552E552EC
:10E7F000050EDBCFE6FF3DEC7DF0E5520001E16B5D
:10E800000001CB5109E00001CB51106E116AFF0EDF
:10E81000101801E1115013E1A6EC78F0010EE66E3C
:10E82000D70EE66EFE0EE66E000EE66ED7EC7DF0BD
:10E83000E552E552E552E5520001E16B64D04FEC40
:10E8400078F000091AE00001010EE16F00011E0ED0
:10E85000DD6FDE6BDF6BE06B81A2FED7010EE66E33
:10E86000D40EE66EFE0EE66E000EE66ED7EC7DF080
:10E87000E552E552E552E55246D0010EDB50040860
:10E8800018E10001010EE16F00010A0EDD6FDE6B81
:10E89000DF6BE06B010EE66ED10EE66EFE0EE66EED
:10E8A000000EE66ED7EC7DF0E552E552E552E552FA
:10E8B0002AD04A0EE66E010EE66EA5EC79F0E5521E
:10E8C000E5520001DD6F0001DE6BDF6BE06BD8808D
:10E8D000000E0001DD55000EDE55000EDF55000E66
:10E8E000E05503E20001010EE16F010EE66ECE0E6F
:10E8F000E66EFE0EE66E000EE66ED7EC7DF0E5529B
:10E90000E552E552E552010EE66ECC0EE66EFE0EC5
:10E91000E66E000EE66ED7EC7DF0E552E552E5526C
:10E92000E552010EE66EC50EE66EFE0EE66E000EB8
:10E93000E66ED7EC7DF0E552E552E552E552010E68
:10E94000E66EBF0EE66EFE0EE66E000EE66ED7ECCD
:10E950007DF0E552E552E552E552010EE66EDDC06E
:10E96000E6FF80EC7DF0E552E5520001D890DD37FE
:10E97000DE37DF37E037010EE66EBA0EE66EFE0ECA
:10E98000E66E000EE66ED7EC7DF0E552E552E552FC
:10E99000E552010EE66E010EE66E80EC7DF0E5526A
:10E9A000E552010EE66EB80EE66EFE0EE66E000E45
:10E9B000E66ED7EC7DF0E552E552E552E552010EE8
:10E9C000E66E090EE66E80EC7DF0E552E552010E32
:10E9D000E66EB30EE66EFE0EE66E000EE66ED7EC49
:10E9E0007DF0E552E552E552E552010EE66EF2C0C9
:10E9F000E6FF80EC7DF0E552E552010EE66EB80EC2
:10EA0000E66EFE0EE66E000EE66ED7EC7DF0E55289
:10EA1000E552E552E552010EE66EF3C0E6FF80ECEA
:10EA20007DF0E552E552010EE66EB80EE66EFE0E82
:10EA3000E66E000EE66ED7EC7DF0E552E552E5524B
:10EA4000E552010EE66EF4C0E6FF80EC7DF0E55283
:10EA5000E552010EE66EAF0EE66EFE0EE66E000E9D
:10EA6000E66ED7EC7DF0E552E552E552E552010E37
:10EA7000E66ECBC0E6FF80EC7DF0E552E552010E7C
:10EA8000E66EB80EE66EFE0EE66E000EE66ED7EC93
:10EA90007DF0E552E552E552E552010EE66ECCC03E
:10EAA000E6FF80EC7DF0E552E552010EE66EB80E11
:10EAB000E66EFE0EE66E000EE66ED7EC7DF0E552D9
:10EAC000E552E552E552010EE66ECDC0E6FF80EC60
:10EAD0007DF0E552E552010EE66EB80EE66EFE0ED2
:10EAE000E66E000EE66ED7EC7DF0E552E552E5529B
:10EAF000E552010EE66ECEC0E6FF80EC7DF0E552F9
:10EB0000E552010EE66EAD0EE66EFE0EE66E000EEE
:10EB1000E66ED7EC7DF0E552E552E552E552010E86
:10EB2000E66E9C0EE66EFE0EE66E000EE66ED7EC0E
:10EB30007DF0E552E552E552E5529EDA0001E151E1
:10EB400001E196D0F2A42ED084748472A0DA000180
:10EB5000D9C010F0DAC011F0DBC012F0DCC013F045
:10EB6000D92B000EDA23DB23DC230001DD51105CFE
:10EB70000001DE5111580001DF5112580001E0512F
:10EB8000135810E3010EE66E940EE66EFE0EE66E6E
:10EB9000000EE66ED7EC7DF0E552E552E552E55207
:10EBA0000001E16B81B212D0020EDBCFF3FFDB2A52
:10EBB000F35004080AE20001060EEC6F0001420E59
:10EBC000C56FBCEC7CF081A2FED702D0020EDB6ADE
:10EBD000030EDB50010A0DE0010A01E045D0B8EC5C
:10EBE0007BF0000905E0010EF36E030EF3CFDBFFAF
:10EBF0003ED0010EE66E910EE66EFE0EE66E000E43
:10EC0000E66ED7EC7DF0E552E552E552E55264EC54
:10EC10007EF0A3D9010EE66E8E0EE66EFE0EE66E57
:10EC2000000EE66ED7EC7DF0E552E552E552E55276
:10EC300064EC7EF00001EC0505E00001D96BDA6BB5
:10EC4000DB6BDC6BBCEC7CF0010EE66E8B0EE66ED3
:10EC5000FE0EE66E000EE66ED7EC7DF0E552E55254
:10EC6000E552E55264EC7EF0030EDB6A00D066D715
:10EC7000DE52040EDD6E010EE66EE66A490EE66EA9
:10EC8000010EE66ED950010FE66E000EDA20E66E38
:10EC90006FDB106E060EE15E1050010EE66E860E02
:10ECA000E66EFE0EE66E000EE66ED7EC7DF0E552E7
:10ECB000E552E552E55264EC7EF0FED9000903E12D
:10ECC00064EC7EF0FF0064EC7EF0010EE66E7E0EDA
:10ECD000E66EFE0EE66E000EE66ED7EC7DF0E552B7
:10ECE000E552E552E5520400D18004003CEF73F098
:10ECF0000A0EE15C02E2E16AE552E16EE552E7CF1D
:10ED0000D9FF1200DEEC7AF00F0EE12625EC7BF045
:10ED1000010E00C1DBFF01C1DFFF45EC7BF00D0EF2
:10ED2000EECFDBFF0E0EEDCFDBFF45EC7BF09A0E56
:10ED3000EE5C030EEE58000EEE58000EEE5802E3A5
:10ED4000020E66D045EC7BF0EECF04F0EECF05F07E
:10ED5000EECF06F0EFCF07F0400E096E0A6A0B6A9D
:10ED60000C6A6DEC7FF000C0DEFF01C0DEFF02C068
:10ED7000DEFF03C0DDFFDD52DD52D4EC7AF010502F
:10ED800011101210131030E1080EE66EE66ACAEC9C
:10ED90007AF0D950040FE66E000EDA2016EC7BF004
:10EDA0000C0EDB6A080EF36E0C0EDBCFF4FFF35093
:10EDB000F45C1AE2D950040F106EDACF11F00C0E89
:10EDC000DB500F011024E96E000EDA20EA6EEF50DE
:10EDD000E66E0C0EDB50020FFCEC7AF0E552E750C9
:10EDE000EF6E0C0EDB2ADED70D0EDBCFE6FF0E0E2C
:10EDF000DBCFE6FFF9DAE552E552CCDB020EE66E38
:10EE0000010EE66E13DB7DEC7BF00001ED6B000E76
:10EE1000106E0F0EE15C02E2E16AE552E16E105005
:10EE2000D2D3030EE66EE66A410EE66E010EE66E82
:10EE300075EF7BF01DEC7BF075EF7BF0BFDB020E16
:10EE4000E126E20EDE6E000EDD6E010EE66E700E45
:10EE5000E66EFE0EE66E000E3DEC7BF064EC7EF09E
:10EE60002BD9000907E00001E26B010E58EC7BF0A2
:10EE7000000E06D00001010EE26F58EC7BF0050E8B
:10EE8000106E020EE15C02E2E16AE552E16E1050A2
:10EE90009AD30001ED6B400E70DB410E6EDB420E2B
:10EEA0006CDB430E6ADB4B0E68DB000C0001ED6B84
:10EEB00064EC7BF0010EEF6E64EC7BF0090EEF6EFC
:10EEC000000C7CDB030EE126DF6A010EDB6A020E1A
:10EED000DB6AFE0EDB5090DBEF50430803E00001DD
:10EEE000030EEC6FDF6AFE0EDB50DF5C0BE2DF50DF
:10EEF00083DBEF50116AE8500001C7271150C82387
:10EF0000DF2AF1D7FE0EDB2877DB020EEFCFDBFF27
:10EF1000FE0EDB50020F70DB010EEFCFDBFFDBCF0D
:10EF200010F0020EDBCF11F00001C751101802E102
:10EF3000C851111803E00001040EEC6F0001EC5100
:10EF400002E0010E01D0000E106E030EE15C02E241
:10EF5000E16AE552E16E105036D330DBE652DF6AEB
:10EF60000001EC6B460E0001C65D03E00001010EDE
:10EF7000EC6FDF6A640EDF5C08E2C9DBDF503CDB6C
:10EF8000EF50E66EBFDBDF2AF5D70001C551470A17
:10EF900060E0110A4FE0130A3FE0010A2FE00C0A7B
:10EFA00020E00B0A10E00D0A62E1030EE66E2DDB95
:10EFB00061E1010EE66E6C0EE66EFE0EE66E000E70
:10EFC0005CDB2FDF35D0040EE66E1FDB53E1010E54
:10EFD000E66E6A0EE66EFE0EE66E000E4EDB2ADF71
:10EFE00027D0E66A12DB46E1010EE66E680EE66E99
:10EFF000FE0EE66E000E41DB59DF1AD0420EE66EC1
:10F0000004DB38E1010EE66E660EE66EFE0EE66E7D
:10F01000000E33DB77DE0CD0E66AF7DA2BE1010E67
:10F02000E66E640EE66EFE0EE66E000E26DB06DF72
:10F0300000011FD0E66AE9DA1DE12BDF0001EC6F69
:10F04000010EE66E620EE66EFE0EE66E000E15DB3B
:10F0500011D0E66ADADA0EE1010EE66E5A0EE66EBD
:10F06000FE0EE66E000E09DB0001E16B03D000012D
:10F07000010EEC6FE552A7D2D59ED59CD59AD598B6
:10F08000D596F80ED5140709D56E47EF78F0D59EC2
:10F09000F294B30ED76EB40ED66ED58E1200938254
:10F0A00081B2000C010EE66EE66A82EC73F0E55266
:10F0B000E55281B2000C010C81DA090EE126080E3E
:10F0C000DB6ABBDAD950040FE66E000EDA20E66E7A
:10F0D000D1DA070E7CDA010EE66E530EE66EFE0EF6
:10F0E000E66E000ECADAD6DA5FDA10C0E6FF11C0AB
:10F0F000E6FF12C0E6FF13C0E6FF8BDA146E080EBF
:10F10000E15E1450E552E7CF13F0E552E7CF12F07D
:10F11000E552E7CF11F0E552E7CF10F01050041898
:10F1200008E11150051805E11250061802E11350CC
:10F13000071802E0000E01D0010E106E090EE15C0E
:10F1400002E2E16AE552E16E10503DD237DA080E74
:10F15000E1265FDA106E080EE15E1050040E04C066
:10F16000DBFF050E05C0DBFF060E06C0DBFF070E4A
:10F1700007C0DBFF2CDA61DAD9CFE6FFDACFE6FF92
:10F1800041DA080EE15C02E2E16AE552E16E1BD26F
:10F19000120014DA0D0EE126FB0EDB50E76E080EAE
:10F1A000E7CFDBFF090EDB6A0A0EDB6A0B0EDB6AB8
:10F1B0004CDA92DA6ADAFB0EDBCFEEFFFC0EDBCF25
:10F1C000EEFFFD0EDBCFEEFFFE0EDBCFEEFFF70E08
:10F1D000DBCF10F0F80EDBCF11F0F90EDBCF12F021
:10F1E000FA0EDBCF13F051DA1050EE5C1150EE58EE
:10F1F0001250EE581350EE582DE2D6D93F0E10168D
:10F20000116A126A136A105011101210131003E1E0
:10F21000080EDB6A61DA080EDBCFF3FFDB2AF3505E
:10F22000EBD9EFCF10F0116A126A136AD950090FA7
:10F23000E96EDACFEAFF1050EE261150EE2212509E
:10F24000EE221350EE2221DAEE2A000EEE22EE22FA
:10F25000EE22BDD7010EE66E4C0EE66EFE0EE66E99
:10F26000000E0BDA12DA090EDBCFEEFF0A0EDBCF4F
:10F27000EEFF0B0EDBCFEEFF0C0EDBCFEEFF0ADA5C
:10F28000090EDBCF10F00A0EDBCF11F00B0EDBCF37
:10F2900012F00C0EDBCF13F010C004F011C005F01B
:10F2A00012C006F013C007F00D0EE15C02E2E16A45
:10F2B000E552E16E88D1D9CFE6FFE1CFD9FF020E4A
:10F2C000E126DE6ADD6ADECF10F0DDCF11F0F90E47
:10F2D000DBCF12F0FA0EDBCF13F01250105C13509C
:10F2E000115829E2FB0EDB50746EFB0EDBCF10F0E1
:10F2F000FC0EDBCF11F011C010F0116A1050756ECA
:10F300007F6A7F800000FD0EDBCF10F0FE0EDBCFAA
:10F3100011F0DE501024E96EDD501120EA6E73CF3B
:10F32000EFFFFB0EDB2AFC0E01E3DB2ADF2A010ED6
:10F3300001E3DB2AC8D7020EE15C02E2E16AE55292
:10F34000E16EE552E7CFD9FF120038D9E652010E3F
:10F35000E66EE66AFD0EDBCFE6FFFE0EDBCFE6FFD4
:10F36000D9CFE6FFDACFE6FF85D9DF50E5522BD1C2
:10F3700025D9020EE126DE6ADD6ADECF10F0DDCF90
:10F3800011F0F90EDBCF12F0FA0E6DD926E2FB0E6A
:10F39000DB50746EFB0EFC0EDBCF11F011C010F0D1
:10F3A0001150756EFD0EDBCF10F0FE0EDBCF11F0AD
:10F3B000DE501024E96EDD501120EA6EEF50736EBE
:10F3C000040E7F6EBCD8FB0EDB2AFC0E01E3DB2AA9
:10F3D000DF2A010ED2E3DB2AD0D7020EE15C02E283
:10F3E000E16AE552E16EEFD0D9CFE6FFE1CFD9FF78
:10F3F0000400FD0EDBCF10F0FE0EDBCF11F0126A21
:10F40000060E1F0B10C0F6FF11C0F7FF12C0F8FF69
:10F4100006E0D890F636F736F836E806FAE1940EAC
:10F420007F6E8DD8E552E7CFD9FF1200D9CFE6FF26
:10F43000E1CFD9FF020EE126F90EDBCFF6FFFA0E7F
:10F44000DBCFF7FFFB0EDBCFF8FFDE6ADD6ADECF36
:10F4500010F0DDCF11F0400E105C000E115814E2D8
:10F46000FD0EDBCF10F0FE0EDBCF11F0DE501024CE
:10F47000E96EDD501120EA6EEF50F56E0D00DF2AC7
:10F48000010E01E3DB2AE3D70A00A40E7F6E57D8F2
:10F49000020EE15C02E2E16AE552E16EE552E7CF7D
:10F4A000D9FF1200D9CFE6FFE1CFD9FF020EE12646
:10F4B000FB0EDB50F00809E0F90EDBCFF6FFFA0E89
:10F4C000DBCFF7FFFB0EDBCFF8FFDE6ADD6ADECFB6
:10F4D00010F0DDCF11F0F70EDBCF12F0F80EDBCF1E
:10F4E00013F01250105C135011581FE20900300E37
:10F4F000F85C08E1050EF65C01E1F568080EF65CC3
:10F5000001E1F568FD0EDBCF10F0FE0EDBCF11F050
:10F51000DE501024E96EDD501120EA6EF5CFEFFFCA
:10F52000DF2A010E01E3DB2AD2D7020EE15C02E200
:10F53000E16AE552E16EE552E7CFD9FF1200D9CF7B
:10F54000E6FFE1CFD9FFE652F250800B01E0010E59
:10F55000DF6EF29E550E7E6EAA0E7E6E7F82DF50AB
:10F5600001E0F28E7FB2FED77F94E552E552E7CFFD
:10F57000D9FF1200C7D887EF7BF0E66E010EE66E6A
:10F58000E4DEE552E552E66E00019ED8E552E75012
:10F59000EF6E12007AD8EECFE6FFEECFE6FFEECFA9
:10F5A000E6FFEFCFE6FF120070D8EECF10F0EECFFF
:10F5B00011F0EECF12F0EFCF13F01200D9CFE6FF2B
:10F5C000E1CFD9FF1200E552E7CFD9FF1200DB509F
:10F5D000DF6E060EDB50E76E010EE7CFDBFF050E98
:10F5E000DB50E76E020EE7CFDBFF040EDB50E76E69
:10F5F000030EE7CFDBFF1200EA6A000FE96E010E8F
:10F60000EA221200B5DE7DEF7BF05BDCE5520009FB
:10F610001200800EE66EE60EE66EE66AE66A080EF8
:10F62000E66EE66AE66AE66AC9EF78F0E66E3ADF09
:10F63000106E080EE15E10501200040EE66EE66ACF
:10F64000440EE66E010EE66E12000C0EDB6ADE6AF8
:10F65000DE6ADE6ADD6ADD52DD521200030EDBCFA8
:10F66000E6FF82EF7BF0DBCF13F01250105C1350FB
:10F670001158120020DE7DEF7BF0E66ED7EC7DF0B6
:10F68000E552E552E552E5521200D9CFE9FFDACF53
:10F69000EAFF1200010EE66EDFCFE6FF6BDFDBCF85
:10F6A000E6FF68DF020EDBCFE6FF64DF2EEF7BF0C4
:10F6B000E66EE66A4B0EE66E010EE66EDECFE6FF04
:10F6C000DDCFE6FF02EF7BF0ED51ED2BEA6A600F34
:10F6D000E96E000EEA221200400EE66EE66A5ADF7C
:10F6E000000EE66E010E16EF7BF0000EE66E010EC8
:10F6F000E66E88DF0001ED6B000C106E060EE15E19
:10F700001050120080EC7DF0E552E5521200010E1F
:10F71000E66E6E0EE66EFE0EE66E000EAEDF010EBB
:04F72000E66E12007F
:0CF7240099D9040EE126550EDE6EDE6A57
:10F73000DE6ADD6ADD52DD52A786AC84DF50AF6E33
:10F74000010EDB507D6EAC8AAC98AB8EAB880F019E
:10F750005D6B5C6B959883980001F569F669000113
:10F76000ED6B040EE15C02E2E16AE552E16E79D1F3
:10F7700073D9020EE126010EDB6AABA207D0AB986B
:10F78000E66EC3EC7FF0E552AB8804D0ABA404D0A6
:10F79000AE50DF6E000EADD09EAAA9D0AE50DF6E87
:10F7A0009E9A0001EE510C0A01E195D0070A01E191
:10F7B0008BD0010A01E183D0030A01E17CD0010A68
:10F7C0006DE00F0A44E0010A3CE0030A30E0010A60
:10F7D00025E0070A1CE0010A10E0030A09E0010A1B
:10F7E00001E084D0530EDF5C01E081D0EE2B7FD0AE
:10F7F000540EDF5C24E1020E77D0DF500001C76FAA
:10F80000C86BCB51DF5C11E10001030E6DD019D93B
:10F81000CC51DF5C0AE10001040E66D012D9CD5153
:10F82000DF5C03E10001050E5FD0000108D009D9BB
:10F83000CE51DF5C03E10001060E56D00001EE6BF5
:10F8400056D0FFD8DFCFC6F00001070E4DD0F9D853
:10F85000DFCFC5F0460EC65D1FE1C551450A16E073
:10F86000130A14E0110A12E0030A0CE0070A06E08A
:10F870000D0A12E10001EF6B060E0BD00001EF6BD9
:10F88000070E07D00001EF6B450E03D00001EF6BB0
:10F89000030EF06F080E28D000011BD0EF51EF2BA4
:10F8A000EA6A000FE96E010EEA22DFCFEFFFF051A6
:10F8B000EF5D1DE30ED00D0EDF5C19E108D00A0EDE
:10F8C000DF5C07E10B0E10D00D0EDF5C02E10C0EC9
:10F8D0000BD0090E09D00A0EDF5C05E1EE6BDE529B
:10F8E000010EDD6E04D0090EEE6F01D0EE6B010E3D
:10F8F000DB50106E020EE15C02E2E16AE552E16E5D
:10F900001050AFD0A9D8ACA2FED7FE0EDB50AD6E22
:10F91000FE0EDB50116AE8500001C9271150CA23BE
:10F92000A0D09AD8030EE126640EF36E020EF3CF38
:10F93000DBFFDE6ADD6ADECF10F0DDCF11F0FD0EF9
:10F94000DBCF12F0FE0EDBCF13F01250105C135021
:10F9500011580BE2020EDBCFE6FFDFEC7FF0E55241
:10F96000DF2A010EE8E3DB2AE6D7030EE15C02E2C0
:10F97000E16AE552E16E75D06FD8040EE126DF6AC8
:10F98000030EDB6ADB6A020EF36E030EDBCFF4FFBD
:10F99000F350F45C4DE2AB988388520E5AD8430E74
:10F9A00058D80001C96BCA6BCBC0E6FF5ED8CCC08B
:10F9B000E6FF5BD8CDC0E6FF58D8CEC0E6FF55D8ED
:10F9C000460E47D8C5C0E6FF50D8ECC0E6FF4DD87C
:10F9D0000001ED51DF5C0AE2DF50DF2AEA6A600FC6
:10F9E000E96E000EEA22EF50E66EF1D7010EC9C0B3
:10F9F000DBFF020ECAC0DBFF430E2BD8020EDBCFAB
:10FA0000E6FF33D8010EDBCFE6FF2FD831D830D850
:10FA1000ACA2FED78398AB88450E0001C55D05E01A
:10FA2000020EF36E030EF3CFDBFF030EDB2AABD720
:10FA30000001ED6B040EE15C02E2E16AE552E16E69
:10FA400010D0DF50116AE8500001C7271150C823B9
:10FA50001200E66E35EF7DF0D9CFE6FFE1CFD9FF9A
:10FA60001200E552E7CFD9FF12004CDFE552120039
:0AFA70000D0EEFDF0A0E29EF7DF006
:06FA7A0076D9FE0EDBCF81
:10FA8000EBF04CD171D9040EE126550EDE6EDE6A24
:10FA9000DE6ADD6ADD52DD52B986BA84DF507B6EE4
:10FAA000010EDB507C6EBA8ABA98A68EA688040E28
:10FAB000E15C02E2E16AE552E16E30D10001E7511A
:10FAC000E91904E1E851EA1901E11200BAA214D0DF
:10FAD000E7C0E9FFE8C0EAFFEF50796EE551E719AA
:10FAE00008E1E651E81905E1E3C0E7F0E4C0E8F019
:10FAF0001200E72B000EE8231200D9CFE6FF0ED14B
:10FB000033D9050EE126040EDB6A640E146E26D985
:10FB10000750DBD812BE1368E3D813BE146808D9A7
:10FB200002E3040EDB2A640E156E18D903C014F02C
:10FB30000A0E166E0C6E03C007F0D1EC7FF0075072
:10FB4000C4D812BE1368CCD813BE1468F1D802E32F
:10FB5000040EDB2A0A0E146E01D90350B6D812BE69
:10FB600013681ED9E552E750EF6E040EDB2AD9CF99
:10FB700010F0DACF11F0DBCF12F0136A12BE136867
:10FB80000FD9EF6AFD0EDBCFE6FFD9CFE6FFDACF64
:10FB9000E6FF5BD8E552E552E552050EE15C02E274
:10FBA000E16AE552E16EBAD0D9CFE6FFB7D0DCD832
:10FBB000030EE126D9CFE9FFDACFEAFFFC0EDBCF57
:10FBC000EEFFFD0EDBCFEEFFFE0EDBCFEEFFE1D84A
:10FBD00002E1115033E0FB0EDB5007E0B4D82EE019
:10FBE000BAA2FCD78AD8796EF9D7ADD827E085D8E4
:10FBF00099D8E551E91908E1E651EA1905E1E3C0B0
:10FC0000E9F0E4C0EAF003D0E92B000EEA23E75163
:10FC1000E919EBE1E851EA19E8E1E351E91908E1F2
:10FC2000E451EA1905E1E5C0E9F0E6C0EAF003D0E5
:10FC3000E907000EEA5B230E75D8D7D7030EE15C07
:10FC400002E2E16AE552E16E69D08ED8A2D802E103
:10FC5000115039E0FC0EDB500AE08BD834E0BAA238
:10FC6000FCD78FD801E3DB2AEF50796EF6D781D825
:10FC70002AE087D801E3DB2AEF5054D8E551E9198F
:10FC800008E1E651EA1905E1E3C0E9F0E4C0EAF071
:10FC900003D0E92B000EEA23E751E919E8E1E85126
:10FCA000EA19E5E1E351E91908E1E451EA1905E14E
:10FCB000E5C0E9F0E6C0EAF003D0E907000EEA5B30
:10FCC000230E30D8D4D72AD01200300FE66ED9CF09
:10FCD00010F0DACF11F0040EDBCF12F0136A12002D
:10FCE0005FD8E552E750EF6ED9CF11F0DACF12F0BE
:10FCF000040EDBCF13F0146A1200D9CFE9FFDACF7C
:10FD0000EAFFEFCFF6FFEE2AEFCFF7FF000EEE226D
:10FD1000EFCFF8FFEE220800F5501200E552E7CFD2
:10FD2000D9FF1200E9C0E9FFEAC0EAFFEF6E120056
:10FD300011501324E96E12501420EA6EEFCF10F028
:10FD4000300E105C1200DFCFF6FF010EDBCFF7FFA5
:10FD5000020EDBCFF8FF0800F55012000C6EFE0E0D
:10FD6000DBCF07F0D1EF7FF0D9CFE6FFE1CFD9FFAE
:10FD70001200FD0EDBCFE9FFFE0EDBCFEAFFEF50F6
:10FD80001200FD0EDBCFE9FFDB2AFE0EDBCFEAFF20
:10FD900012000001EB51106E116AFF0E10181200D4
:0EFDA00010501224E96E11501320EA6E12006A
:02FDAE00800EC5
:10FDB000F66EE60EF76E000EF86E00010900F550C3
:10FDC000D46F0900F550D56F03E1D46701D03DD061
:10FDD0000900F550CF6F0900F550D06F0900F550BC
:10FDE000D16F09000900F550E96E0900F550EA6E7F
:10FDF000090009000900F550D26F0900F550D36FD2
:10FE000009000900F6CFD6F0F7CFD7F0F8CFD8F039
:10FE1000CFC0F6FFD0C0F7FFD1C0F8FF0001D2532A
:10FE200002E1D35307E00900F550EE6ED207F8E285
:10FE3000D307F9D7D6C0F6FFD7C0F7FFD8C0F8FF71
:0CFE40000001D407000ED55BBFD71200F4
:04FE4C000A4373757D
:10FE50006D3A000A4573756D3A00474F544F415053
:10FE60005000560045004400480043004E002C005E
:10FE70005570646174652053746174757300476FC5
:10FE8000746F4170700053746F70005F73005F6E29
:10FE9000005F760054494D454F5554000A4F706538
:10FEA0006E4D6F746963732032303137000A000A77
:10FEB0004120000A465756002E000A424C56000ABE
:10FEC00057445420000A424C2043430042000A4455
:0AFED000000A43000A42000A410044
:06FEDA0004500902F3CF01
:10FEE00000F0F4CF01F00A02F3500126000EF420D6
:10FEF000026E04500B02F3500226000EF420036E33
:10FF000004500C02F350032605500902F350012659
:10FF1000F4500222000E032205500A02F35002267A
:10FF2000F450032205500B02F35003260650090239
:10FF3000F3500226F450032206500A02F35003261F
:0AFF400007500902F35003261200D7
:06FF4A00410EF36E00EE13
:10FF500000F00E0E01D81200EA6002D0EE6AFCD763
:0AFF6000F350E9601200EE6AFCD7CE
:06FF6A001DEE00F02DEE7B
:10FF700000F0F86A0F9CD7EC7EF0EAEC7FF09BEC87
:06FF800073F0FBD7120034
:0AFF8600FF0EE350176E1B0E00D0B3
:10FF900001D0200EE76EE72EFED7172EFAD700D03D
:02FFA00012004D
:0EFFA200036A080EE76ED890073603360C503F
:0EFFB000035C02E3036E072AE72EF7D7120068
:02FFBE00FF0E34
:10FFC000E350E84E1200000000D000D000D0E82E30
:04FFD000FAD712004A
:02FFD400120019
:02FFD600FEFF2C
:08FFD800000000000000000021
:02FFE00001001E
:05FFE20000000000001A
:09FFE700F700F700F700F7000134
:020000040030CA
:0100000015EA
:0100010012EC
:0100030026D6
:010005008971
:010008000FE8
:01000900C036
:00000001FF
