:020000040000FA
:06000000A9EF3FF0120021
:0600080004EF20F01200DD
:060018000CEF20F01200C5
:1066C0000400CF7F0000E300000009000000CA7F43
:1066D0000000EC00000005000000C07F0000D900B1
:1066E00000000A000000BE7F0000F500000002006C
:0266F0000000A8
:0E66F200D4EC3AF0030EE126640EF36E020EB5
:10670000F3CFDBFFDE6ADD6ADECF10F0DDCF11F004
:10671000FD0EDBCF12F0FE0E28EC3BF00BE2020E7A
:10672000DBCFE6FFD3EC3FF0E552DF2A010EECE3CE
:10673000DB2AEAD7030EE15C02E2E16AE552E16E90
:10674000D9EF3AF0D4EC3AF0E652FD0EDBCF10F080
:10675000DB06FE0EDBCF11F001E2DB06105011105C
:1067600007E00A0EE66EE66AC4DFE552E552EDD7B1
:10677000E552D9EF3AF0D9CFE6FFE1CFD9FF0A0EC3
:10678000E126DF6A4A0EE66EE66A9CEC39F0E552D5
:10679000E552E76E010EE7CFDBFF020EDB6A030E68
:1067A000DB6AF29ED19096949692040EE66EE66AAB
:1067B000010EE66EE66ACB0EE66E000EE66E52EC59
:1067C00039F0106E060EE15E1050030EE66EE66ABA
:1067D000410EE66EE66AF20EE66E000EE66E52ECD2
:1067E00039F0106E060EE15E105086EC3BF036EC90
:1067F0003DF00001E16B0001CB5109E00001CB51FC
:10680000106E116AFF0E101801E1115013E19DEC9A
:1068100038F0010EE66EBF0EE66E7E0EE66E000EDE
:10682000E66ECBEC3DF0E552E552E552E552000153
:10683000E16B63D046EC38F000091AE00001010E6C
:10684000E16F00011E0EDD6FDE6BDF6BE06B81A27E
:10685000FED7010EE66EBC0EE66E7E0EE66E000EF4
:10686000E66ECBEC3DF0E552E552E552E55245D0FF
:10687000010EDB50040818E10001010EE16F000178
:106880000A0EDD6FDE6BDF6BE06B010EE66EB90E9C
:10689000E66E7E0EE66E000EE66ECBEC3DF0E55247
:1068A000E552E552E55229D04B0EE66EE66A9CECC5
:1068B00039F0E552E5520001DD6F0001DE6BDF6B60
:1068C000E06BD880000E0001DD55000EDE55000E95
:1068D000DF55000EE05503E20001010EE16F010EED
:1068E000E66EB60EE66E7E0EE66E000EE66ECBEC43
:1068F0003DF0E552E552E552E552010EE66EB40E6A
:10690000E66E7E0EE66E000EE66ECBEC3DF0E552D6
:10691000E552E552E552010EE66EAD0EE66E7E0ED4
:10692000E66E000EE66ECBEC3DF0E552E552E55228
:10693000E552010EE66EA70EE66E7E0EE66E000EC6
:10694000E66ECBEC3DF0E552E552E552E552010E24
:10695000E66EDDC0E6FF74EC3DF0E552E552000165
:10696000D890DD37DE37DF37E037010EE66EA20E56
:10697000E66E7E0EE66E000EE66ECBEC3DF0E55266
:10698000E552E552E552010EE66E010EE66E74EC3C
:106990003DF0E552E552010EE66EA00EE66E7E0E6B
:1069A000E66E000EE66ECBEC3DF0E552E552E552A8
:1069B000E552010EE66E090EE66E74EC3DF0E5520E
:1069C000E552010EE66E9B0EE66E7E0EE66E000E42
:1069D000E66ECBEC3DF0E552E552E552E552010E94
:1069E000E66EF2C0E6FF74EC3DF0E552E552010EB2
:1069F000E66EA00EE66E7E0EE66E000EE66ECBEC48
:106A00003DF0E552E552E552E552010EE66EF3C067
:106A1000E6FF74EC3DF0E552E552010EE66EA00E85
:106A2000E66E7E0EE66E000EE66ECBEC3DF0E552B5
:106A3000E552E552E552010EE66EF4C0E6FF74EC55
:106A40003DF0E552E552010EE66E970EE66E7E0EC3
:106A5000E66E000EE66ECBEC3DF0E552E552E552F7
:106A6000E552010EE66ECBC0E6FF74EC3DF0E55258
:106A7000E552010EE66EA00EE66E7E0EE66E000E8C
:106A8000E66ECBEC3DF0E552E552E552E552010EE3
:106A9000E66ECCC0E6FF74EC3DF0E552E552010E27
:106AA000E66EA00EE66E7E0EE66E000EE66ECBEC97
:106AB0003DF0E552E552E552E552010EE66ECDC0DD
:106AC000E6FF74EC3DF0E552E552010EE66EA00ED5
:106AD000E66E7E0EE66E000EE66ECBEC3DF0E55205
:106AE000E552E552E552010EE66ECEC0E6FF74ECCB
:106AF0003DF0E552E552010EE66E950EE66E7E0E15
:106B0000E66E000EE66ECBEC3DF0E552E552E55246
:106B1000E552010EE66E840EE66E7E0EE66E000E07
:106B2000E66ECBEC3DF0E552E552E552E5529BDADC
:106B30000001E15101E196D0F2A42ED08474847258
:106B40009DDA0001D9C010F0DAC011F0DBC012F0FC
:106B5000DCC013F0D92B000EDA23DB23DC23000189
:106B6000DD51105C0001DE5111580001DF51125857
:106B70000001E051135810E3010EE66E7C0EE66E44
:106B80007E0EE66E000EE66ECBEC3DF0E552E55271
:106B9000E552E5520001E16B81B212D0020EDBCF6B
:106BA000F3FFDB2AF35004080AE20001060EEC6F43
:106BB0000001420EC56FB0EC3CF081A2FED702D0BE
:106BC000020EDB6A030EDB50010A0DE0010A01E050
:106BD00045D0ACEC3BF0000905E0010EF36E030E6E
:106BE000F3CFDBFF3ED0010EE66E790EE66E7E0E31
:106BF000E66E000EE66ECBEC3DF0E552E552E55256
:106C0000E55258EC3EF0A0D9010EE66E760EE66E27
:106C10007E0EE66E000EE66ECBEC3DF0E552E552E0
:106C2000E552E55258EC3EF00001EC0505E00001AC
:106C3000D96BDA6BDB6BDC6BB0EC3CF0010EE66E13
:106C4000730EE66E7E0EE66E000EE66ECBEC3DF049
:106C5000E552E552E552E55258EC3EF0030EDB6A90
:106C600000D066D7DE52040EDD6E010EE66EE66AD7
:106C70004A0EE66EE66AD950010FE66E000EDA2083
:106C8000E66E6DDB106E060EE15E1050010EE66ED4
:106C90006E0EE66E7E0EE66E000EE66ECBEC3DF0FE
:106CA000E552E552E552E55258EC3EF0FCD90009B8
:106CB00003E158EC3EF0FF0058EC3EF0010EE66EAA
:106CC000660EE66E7E0EE66E000EE66ECBEC3DF0D6
:106CD000E552E552E552E5520400D18004003CEF54
:106CE00033F00A0EE15C02E2E16AE552E16EE55240
:106CF000E7CFD9FF1200D4EC3AF00F0EE1261AECE0
:106D00003BF0010E00C1DBFF01C1DFFF3AEC3BF0BD
:106D10000D0EEECFDBFF0E0EEDCFDBFF3AEC3BF0BE
:106D20009A0EEE5C010EEE58000EEE58000EEE5874
:106D300002E3020E66D03AEC3BF0EECF04F0EECF69
:106D400005F0EECF06F0EFCF07F0400E096E0A6AAD
:106D50000B6A0C6A61EC3FF000C0DEFF01C0DEFF91
:106D600002C0DEFF03C0DDFFDD52DD52CAEC3AF0A7
:106D7000105011101210131030E1080EE66EE66A82
:106D8000C0EC3AF0D950040FE66E000EDA200CEC9D
:106D90003BF00C0EDB6A080EF36E0C0EDBCFF4FF3B
:106DA000F350F45C1AE2D950040F106EDACF11F0F0
:106DB0000C0EDB500F011024E96E000EDA20EA6E93
:106DC000EF50E66E0C0EDB50020FF2EC3AF0E5529B
:106DD000E750EF6E0C0EDB2ADED70D0EDBCFE6FFA1
:106DE0000E0EDBCFE6FFF7DAE552E552C9DB020E05
:106DF000E66E010EE66E11DB71EC3BF00001ED6B0F
:106E0000000E106E0F0EE15C02E2E16AE552E16EE7
:106E10001050CFD3030EE66EE66A410EE66EE66AC8
:106E200069EF3BF013EC3BF069EF3BF0BDDB020E8A
:106E3000E126E20EDE6E000EDD6E010EE66E580EED
:106E4000E66E7E0EE66E000E32EC3BF058EC3EF045
:106E50002AD9000907E00001E26B010E55EC3BF076
:106E6000000E06D00001010EE26F55EC3BF0050E5E
:106E7000106E020EE15C02E2E16AE552E16E105032
:106E800098D30001ED6B400E6FDB410E6DDB420EBF
:106E90006BDB430E69DB4C0E67DB000C0001ED6B16
:106EA0004DEC3BF0010EEF6EF8DB090EEF6E000CBF
:106EB0007BDB030EE126DF6A010EDB6A020EDB6A72
:106EC000FE0EDB508FDBEF50430803E00001030EA2
:106ED000EC6FDF6AFE0EDB50DF5C0BE2DF5082DB23
:106EE000EF50116AE8500001C7271150C823DF2A6C
:106EF000F1D7FE0EDB2876DB020EEFCFDBFFFE0EB6
:106F0000DB50020F6FDB010EEFCFDBFFDBCF10F0AA
:106F1000020EDBCF11F00001C751101802E1C85179
:106F2000111803E00001040EEC6F0001EC5102E0C7
:106F3000010E01D0000E106E030EE15C02E2E16A68
:106F4000E552E16E105035D32FDBE652DF6A0001C7
:106F5000EC6B460E0001C65D03E00001010EEC6F14
:106F6000DF6A640EDF5C08E2C6DBDF503BDBEF501C
:106F7000E66EBCDBDF2AF5D70001C551470A60E0A9
:106F8000110A4FE0130A3FE0010A2FE00C0A20E04B
:106F90000B0A10E00D0A62E1030EE66E2CDB61E1E4
:106FA000010EE66E540EE66E7E0EE66E000E5ADBA5
:106FB00031DF35D0040EE66E1EDB53E1010EE66EC6
:106FC000520EE66E7E0EE66E000E4CDB2BDF27D0F7
:106FD000E66A11DB46E1010EE66E500EE66E7E0EAD
:106FE000E66E000E3FDB5ADF1AD0420EE66E03DB80
:106FF00038E1010EE66E4E0EE66E7E0EE66E000E77
:1070000031DB79DE0CD0E66AF6DA2BE1010EE66EB2
:107010004C0EE66E7E0EE66E000E24DB07DF0001EE
:107020001FD0E66AE8DA1DE12CDF0001EC6F010EEB
:10703000E66E4A0EE66E7E0EE66E000E13DB11D093
:10704000E66AD9DA0EE1010EE66E420EE66E7E0EBB
:10705000E66E000E07DB0001E16B03D00001010EBC
:10706000EC6FE552A6D2D59ED59CD59AD598D596EB
:10707000F80ED5140709D56E3EEF38F0D59EF29480
:10708000B30ED76EB40ED66ED58E1200938281B237
:10709000000C010EE66EE66AA2EC33F0E552E55212
:1070A00081B2000C010C80DA090EE126080EDB6AC1
:1070B000BADAD950040FE66E000EDA20E66ECFDAA7
:1070C000070E7BDA010EE66E3B0EE66E7E0EE66E76
:1070D000000EC8DAD4DA5EDA10C0E6FF11C0E6FFAF
:1070E00012C0E6FF13C0E6FF8ADA146E080EE15EF6
:1070F0001450E552E7CF13F0E552E7CF12F0E55216
:10710000E7CF11F0E552E7CF10F01050041808E176
:107110001150051805E11250061802E11350071826
:1071200002E0000E01D0010E106E090EE15C02E2D9
:10713000E16AE552E16E10503CD236DA080EE126E3
:107140005EDA106E080EE15E1050040E04C0DBFF24
:10715000050E05C0DBFF060E06C0DBFF070E07C0ED
:10716000DBFF2BDA60DAD9CFE6FFDACFE6FF40DAD1
:10717000080EE15C02E2E16AE552E16E1AD2120009
:1071800013DA0D0EE126FB0EDB50E76E080EE7CF9B
:10719000DBFF090EDB6A0A0EDB6A0B0EDB6A4ADADA
:1071A0008FDA68DAFB0EDBCFEEFFFC0EDBCFEEFFF3
:1071B000FD0EDBCFEEFFFE0EDBCFEEFFF70EDBCFDB
:1071C00010F0F80EDBCF11F0F90EDBCF12F0FA0E53
:1071D000DBCF13F04FDA1050EE5C1150EE58125026
:1071E000EE581350EE582DE2D5D93F0E1016116A05
:1071F000126A136A105011101210131003E1080ED6
:10720000DB6A5EDA080EDBCFF3FFDB2AF350EAD944
:10721000EFCF10F0116A126A136AD950090FE96EA4
:10722000DACFEAFF1050EE261150EE221250EE2275
:107230001350EE221FDAEE2A000EEE22EE22EE228C
:10724000BDD7010EE66E340EE66E7E0EE66E000EC3
:1072500009DA10DA090EDBCFEEFF0A0EDBCFEEFF04
:107260000B0EDBCFEEFF0C0EDBCFEEFF08DA090EC4
:10727000DBCF10F00A0EDBCF11F00B0EDBCF12F0DC
:107280000C0EDBCF13F010C004F011C005F012C0DB
:1072900006F013C007F00D0EE15C02E2E16AE55270
:1072A000E16E87D1D9CFE6FFE1CFD9FF020EE1260B
:1072B000DE6ADD6ADECF10F0DDCF11F0F90EDBCF34
:1072C00012F0FA0EDBCF13F01250105C135011586D
:1072D00029E2FB0EDB50746EFB0EDBCF10F0FC0ED0
:1072E000DBCF11F011C010F0116A1050756E7F6A7B
:1072F0007F800000FD0EDBCF10F0FE0EDBCF11F023
:10730000DE501024E96EDD501120EA6E73CFEFFFDE
:10731000FB0EDB2AFC0E01E3DB2ADF2A010E01E370
:10732000DB2AC8D7020EE15C02E2E16AE552E16EB7
:10733000E552E7CFD9FF120037D9E652010EE66ECB
:10734000E66AFD0EDBCFE6FFFE0EDBCFE6FFD9CF10
:10735000E6FFDACFE6FF83D9DF50E5522AD124D900
:10736000020EE126DE6ADD6ADECF10F0DDCF11F01D
:10737000F90EDBCF12F0FA0E6BD926E2FB0EDB50D2
:10738000746EFB0EFC0EDBCF11F011C010F011502B
:10739000756EFD0EDBCF10F0FE0EDBCF11F0DE5070
:1073A0001024E96EDD501120EA6EEF50736E040E6A
:1073B0007F6EBCD8FB0EDB2AFC0E01E3DB2ADF2A42
:1073C000010ED2E3DB2AD0D7020EE15C02E2E16AD1
:1073D000E552E16EEED0D9CFE6FFE1CFD9FF040050
:1073E000FD0EDBCF10F0FE0EDBCF11F0126A060EA1
:1073F0001F0B10C0F6FF11C0F7FF12C0F8FF06E028
:10740000D890F636F736F836E806FAE1940E7F6E35
:107410008DD8E552E7CFD9FF1200D9CFE6FFE1CFF3
:10742000D9FF020EE126F90EDBCFF6FFFA0EDBCF15
:10743000F7FFFB0EDBCFF8FFDE6ADD6ADECF10F070
:10744000DDCF11F0400E105C000E115814E2FD0E5D
:10745000DBCF10F0FE0EDBCF11F0DE501024E96E12
:10746000DD501120EA6EEF50F56E0D00DF2A010E9F
:1074700001E3DB2AE3D70A00A40E7F6E57D8020E81
:10748000E15C02E2E16AE552E16EE552E7CFD9FF45
:107490001200D9CFE6FFE1CFD9FF020EE126FB0EA5
:1074A000DB50F00809E0F90EDBCFF6FFFA0EDBCF78
:1074B000F7FFFB0EDBCFF8FFDE6ADD6ADECF10F0F0
:1074C000DDCF11F0F70EDBCF12F0F80EDBCF13F0AB
:1074D0001250105C135011581FE20900300EF85C76
:1074E00008E1050EF65C01E1F568080EF65C01E1C5
:1074F000F568FD0EDBCF10F0FE0EDBCF11F0DE5095
:107500001024E96EDD501120EA6EF5CFEFFFDF2A7F
:10751000010E01E3DB2AD2D7020EE15C02E2E16A4E
:10752000E552E16EE552E7CFD9FF1200D9CFE6FF71
:10753000E1CFD9FFE652F250800B01E0010EDF6E81
:10754000F29E550E7E6EAA0E7E6E7F82DF5001E0A7
:10755000F28E7FB2FED77F94E552E552E7CFD9FF96
:107560001200C4D87BEF3BF0E66EE66AE5DEE5523A
:10757000E552E66E000191D8E552E750EF6E120039
:1075800079D8EECFE6FFEECFE6FFEECFE6FFEFCF06
:10759000E6FF12006FD8EECF10F0EECF11F0EECF75
:1075A00012F0EFCF13F01200D9CFE6FFE1CFD9FFF1
:1075B0001200E552E7CFD9FF1200DB50DF6E060E56
:1075C000DB50E76E010EE7CFDBFF050EDB50E76E09
:1075D000020EE7CFDBFF040EDB50E76E030EE7CFB2
:1075E000DBFF1200EA6A000FE96E010EEA221200C8
:1075F000B6DE71EF3BF05CDCE55200091200800E54
:10760000E66E660EE66EE66AE66A080EE66EE66A04
:10761000E66AE66AC0EF38F0E66E3BDF106E080EF1
:10762000E15E10501200040EE66EE66A440EE66E4D
:10763000E66A12000C0EDB6ADE6ADE6ADE6ADD6A6A
:10764000DD52DD521200030EDBCFE6FF76EF3BF09A
:10765000DBCF13F01250105C13501158120022DED1
:1076600071EF3BF0E66ECBEC3DF0E552E552E552B2
:10767000E5521200D9CFE9FFDACFEAFF1200010E7E
:10768000E66EDFCFE6FF6DDFDBCFE6FF6ADF020EDF
:10769000DBCFE6FF66DF23EF3BF0ED51ED2BEA6A2F
:1076A000600FE96E000EEA221200E66EE66A4C0EEA
:1076B000E66EE66ADECFE6FFDDCFE6FFF8EF3AF0F2
:1076C000400EE66EE66A5CDF000EE66E010E0CEF21
:1076D0003BF0000EE66E010EE66E8ADF0001ED6BF8
:1076E000000C106E060EE15E1050120074EC3DF0BE
:1076F000E552E5521200010EE66E560EE66E7E0E63
:0C770000E66E000EAFDF010EE66E120018
:04770C0099D9040EF5
:10771000E126550EDE6EDE6ADE6ADD6ADD52DD527E
:10772000A786AC84DF50AF6E010EDB507D6EAC8A55
:10773000AC98AB8EAB880F015D6B5C6B95988398B2
:107740000001F569F6690001ED6B040EE15C02E2EF
:10775000E16AE552E16E79D173D9020EE126010E9C
:10776000DB6AABA207D0AB98E66EB7EC3FF0E55210
:10777000AB8804D0ABA404D0AE50DF6E000EADD009
:107780009EAAA9D0AE50DF6E9E9A0001EE510C0A5F
:1077900001E195D0070A01E18BD0010A01E183D014
:1077A000030A01E17CD0010A6DE00F0A44E0010AFE
:1077B0003CE0030A30E0010A25E0070A1CE0010A68
:1077C00010E0030A09E0010A01E084D0530EDF5CF7
:1077D00001E081D0EE2B7FD0540EDF5C24E1020E5D
:1077E00077D0DF500001C76FC86BCB51DF5C11E170
:1077F0000001030E6DD019D9CC51DF5C0AE1000104
:10780000040E66D012D9CD51DF5C03E10001050EF4
:107810005FD0000108D009D9CE51DF5C03E100013F
:10782000060E56D00001EE6B56D0FFD8DFCFC6F063
:107830000001070E4DD0F9D8DFCFC5F0460EC65D6A
:107840001FE1C551450A16E0130A14E0110A12E0BF
:10785000030A0CE0070A06E00D0A12E10001EF6BD3
:10786000060E0BD00001EF6B070E07D00001EF6B87
:10787000450E03D00001EF6B030EF06F080E28D009
:1078800000011BD0EF51EF2BEA6A000FE96E010EE9
:10789000EA22DFCFEFFFF051EF5D1DE30ED00D0EBA
:1078A000DF5C19E108D00A0EDF5C07E10B0E10D097
:1078B0000D0EDF5C02E10C0E0BD0090E09D00A0E92
:1078C000DF5C05E1EE6BDE52010EDD6E04D0090EC9
:1078D000EE6F01D0EE6B010EDB50106E020EE15C1C
:1078E00002E2E16AE552E16E1050AFD0A9D8ACA235
:1078F000FED7FE0EDB50AD6EFE0EDB50116AE85077
:107900000001C9271150CA23A0D09AD8030EE1263E
:10791000640EF36E020EF3CFDBFFDE6ADD6ADECFAC
:1079200010F0DDCF11F0FD0EDBCF12F0FE0EDBCF3D
:1079300013F01250105C135011580BE2020EDBCF03
:10794000E6FFD3EC3FF0E552DF2A010EE8E3DB2A45
:10795000E6D7030EE15C02E2E16AE552E16E75D022
:107960006FD8040EE126DF6A030EDB6ADB6A020EC3
:10797000F36E030EDBCFF4FFF350F45C4DE2AB98F3
:107980008388520E5AD8430E58D80001C96BCA6B6F
:10799000CBC0E6FF5ED8CCC0E6FF5BD8CDC0E6FF2B
:1079A00058D8CEC0E6FF55D8460E47D8C5C0E6FF2A
:1079B00050D8ECC0E6FF4DD80001ED51DF5C0AE283
:1079C000DF50DF2AEA6A600FE96E000EEA22EF500C
:1079D000E66EF1D7010EC9C0DBFF020ECAC0DBFFA5
:1079E000430E2BD8020EDBCFE6FF33D8010EDBCFE0
:1079F000E6FF2FD831D830D8ACA2FED78398AB8819
:107A0000450E0001C55D05E0020EF36E030EF3CFD7
:107A1000DBFF030EDB2AABD70001ED6B040EE15C4C
:107A200002E2E16AE552E16E10D0DF50116AE850DF
:107A30000001C7271150C8231200E66E29EF3DF060
:107A4000D9CFE6FFE1CFD9FF1200E552E7CFD9FF4A
:107A500012004CDFE55212000D0EEFDF0A0E1DEF93
:027A60003DF0F7
:0E7A620076D9FE0EDBCFEBF04CD171D9040EBD
:107A7000E126550EDE6EDE6ADE6ADD6ADD52DD521B
:107A8000B986BA84DF507B6E010EDB507C6EBA8AF9
:107A9000BA98A68EA688040EE15C02E2E16AE5527D
:107AA000E16E30D10001E751E91904E1E851EA192A
:107AB00001E11200BAA214D0E7C0E9FFE8C0EAFF72
:107AC000EF50796EE551E71908E1E651E81905E153
:107AD000E3C0E7F0E4C0E8F01200E72B000EE82373
:107AE0001200D9CFE6FF0ED133D9050EE126040EE0
:107AF000DB6A640E146E26D90750DBD812BE1368F9
:107B0000E3D813BE146808D902E3040EDB2A640E1E
:107B1000156E18D903C014F00A0E166E0C6E03C051
:107B200007F0C5EC3FF00750C4D812BE1368CCD89C
:107B300013BE1468F1D802E3040EDB2A0A0E146E99
:107B400001D90350B6D812BE13681ED9E552E750CA
:107B5000EF6E040EDB2AD9CF10F0DACF11F0DBCFB5
:107B600012F0136A12BE13680FD9EF6AFD0EDBCF55
:107B7000E6FFD9CFE6FFDACFE6FF5BD8E552E55264
:107B8000E552050EE15C02E2E16AE552E16EBAD02F
:107B9000D9CFE6FFB7D0DCD8030EE126D9CFE9FF75
:107BA000DACFEAFFFC0EDBCFEEFFFD0EDBCFEEFF00
:107BB000FE0EDBCFEEFFE1D802E1115033E0FB0E09
:107BC000DB5007E0B4D82EE0BAA2FCD78AD8796E91
:107BD000F9D7ADD827E085D899D8E551E91908E15A
:107BE000E651EA1905E1E3C0E9F0E4C0EAF003D0A8
:107BF000E92B000EEA23E751E919EBE1E851EA1914
:107C0000E8E1E351E91908E1E451EA1905E1E5C0C9
:107C1000E9F0E6C0EAF003D0E907000EEA5B230EC4
:107C200075D8D7D7030EE15C02E2E16AE552E16E56
:107C300069D08ED8A2D802E1115039E0FC0EDB5099
:107C40000AE08BD834E0BAA2FCD78FD801E3DB2A54
:107C5000EF50796EF6D781D82AE087D801E3DB2A86
:107C6000EF5054D8E551E91908E1E651EA1905E168
:107C7000E3C0E9F0E4C0EAF003D0E92B000EEA2308
:107C8000E751E919E8E1E851EA19E5E1E351E919B9
:107C900008E1E451EA1905E1E5C0E9F0E6C0EAF0DF
:107CA00003D0E907000EEA5B230E30D8D4D72AD0E0
:107CB0001200300FE66ED9CF10F0DACF11F0040EBB
:107CC000DBCF12F0136A12005FD8E552E750EF6E77
:107CD000D9CF11F0DACF12F0040EDBCF13F0146A13
:107CE0001200D9CFE9FFDACFEAFFEFCFF6FFEE2A95
:107CF000EFCFF7FF000EEE22EFCFF8FFEE220800E5
:107D0000F5501200E552E7CFD9FF1200E9C0E9FFB4
:107D1000EAC0EAFFEF6E120011501324E96E125010
:107D20001420EA6EEFCF10F0300E105C1200DFCF9F
:107D3000F6FF010EDBCFF7FF020EDBCFF8FF0800E6
:107D4000F55012000C6EFE0EDBCF07F0C5EF3FF0D2
:107D5000D9CFE6FFE1CFD9FF1200FD0EDBCFE9FF5F
:107D6000FE0EDBCFEAFFEF501200FD0EDBCFE9FF86
:107D7000DB2AFE0EDBCFEAFF12000001EB51106E92
:107D8000116AFF0E1018120010501224E96E1150E3
:067D90001320EA6E120050
:0A7D9600C00EF66E660EF76E000ECA
:107DA000F86E00010900F550D46F0900F550D56F49
:107DB00003E1D46701D03DD00900F550CF6F090031
:107DC000F550D06F0900F550D16F09000900F5504A
:107DD000E96E0900F550EA6E090009000900F55046
:107DE000D26F0900F550D36F09000900F6CFD6F025
:107DF000F7CFD7F0F8CFD8F0CFC0F6FFD0C0F7FF5D
:107E0000D1C0F8FF0001D25302E1D35307E00900CB
:107E1000F550EE6ED207F8E2D307F9D7D6C0F6FFD9
:107E2000D7C0F7FFD8C0F8FF0001D407000ED55B1C
:047E3000BFD71200A6
:0C7E34000A4373756D3A000A4573756DC2
:107E40003A00474F544F41505000560045004400FF
:107E5000480043004E002C00557064617465205347
:107E6000746174757300476F746F41707000537460
:107E70006F70005F73005F6E005F760054494D4580
:107E80004F5554000A4F70656E4D6F7469637320CF
:107E900032303137000A000A4120000A46575600A6
:107EA0002E000A424C56000A57445420000A424C05
:107EB00020494D0042000A44000A43000A42000AD9
:027EC00041007F
:0E7EC20004500902F3CF00F0F4CF01F00A02E1
:107ED000F3500126000EF420026E04500B02F35002
:107EE0000226000EF420036E04500C02F350032609
:107EF00005500902F3500126F4500222000E03221D
:107F000005500A02F3500226F450032205500B02DA
:107F1000F350032606500902F3500226F4500322C0
:107F200006500A02F350032607500902F3500326B5
:027F300012003D
:0E7F3200410EF36E00EE00F00E0E01D81200AC
:107F4000EA6002D0EE6AFCD7F350E9601200EE6AF4
:027F5000FCD75C
:0E7F52001DEE00F02DEE00F0F86A0F9CCBEC57
:0E7F60003EF0DEEC3FF0BBEC33F0FBD712003E
:027F6E00FF0E04
:107F7000E350176E1B0E00D001D0200EE76EE72EE7
:0A7F8000FED7172EFAD700D012002A
:067F8A00036A080EE76E19
:107F9000D890073603360C50035C02E3036E072AC1
:067FA000E72EF7D71200E6
:0A7FA600FF0EE350E84E1200000049
:0C7FB00000D000D000D0E82EFAD712005C
:027FBC001200B1
:027FBE00FEFFC4
:0A7FC00000000000000000000100B6
:057FCA000000000000B2
:017FCF00F7BA
:087FD00000F700F700F70001C3
:020000040030CA
:0100000015EA
:0100010012EC
:0100030026D6
:010008000FE8
:01000900C036
:00000001FF
